{
  "contractName": "OpenEvents",
  "abi": [
    {
      "constant": true,
      "inputs": [
        {
          "name": "interfaceId",
          "type": "bytes4"
        }
      ],
      "name": "supportsInterface",
      "outputs": [
        {
          "name": "",
          "type": "bool"
        }
      ],
      "payable": false,
      "stateMutability": "view",
      "type": "function"
    },
    {
      "constant": true,
      "inputs": [
        {
          "name": "tokenId",
          "type": "uint256"
        }
      ],
      "name": "getApproved",
      "outputs": [
        {
          "name": "",
          "type": "address"
        }
      ],
      "payable": false,
      "stateMutability": "view",
      "type": "function"
    },
    {
      "constant": false,
      "inputs": [
        {
          "name": "to",
          "type": "address"
        },
        {
          "name": "tokenId",
          "type": "uint256"
        }
      ],
      "name": "approve",
      "outputs": [],
      "payable": false,
      "stateMutability": "nonpayable",
      "type": "function"
    },
    {
      "constant": false,
      "inputs": [
        {
          "name": "from",
          "type": "address"
        },
        {
          "name": "to",
          "type": "address"
        },
        {
          "name": "tokenId",
          "type": "uint256"
        }
      ],
      "name": "transferFrom",
      "outputs": [],
      "payable": false,
      "stateMutability": "nonpayable",
      "type": "function"
    },
    {
      "constant": false,
      "inputs": [],
      "name": "unpause",
      "outputs": [],
      "payable": false,
      "stateMutability": "nonpayable",
      "type": "function"
    },
    {
      "constant": false,
      "inputs": [
        {
          "name": "from",
          "type": "address"
        },
        {
          "name": "to",
          "type": "address"
        },
        {
          "name": "tokenId",
          "type": "uint256"
        }
      ],
      "name": "safeTransferFrom",
      "outputs": [],
      "payable": false,
      "stateMutability": "nonpayable",
      "type": "function"
    },
    {
      "constant": true,
      "inputs": [
        {
          "name": "account",
          "type": "address"
        }
      ],
      "name": "isPauser",
      "outputs": [
        {
          "name": "",
          "type": "bool"
        }
      ],
      "payable": false,
      "stateMutability": "view",
      "type": "function"
    },
    {
      "constant": true,
      "inputs": [],
      "name": "paused",
      "outputs": [
        {
          "name": "",
          "type": "bool"
        }
      ],
      "payable": false,
      "stateMutability": "view",
      "type": "function"
    },
    {
      "constant": true,
      "inputs": [
        {
          "name": "tokenId",
          "type": "uint256"
        }
      ],
      "name": "ownerOf",
      "outputs": [
        {
          "name": "",
          "type": "address"
        }
      ],
      "payable": false,
      "stateMutability": "view",
      "type": "function"
    },
    {
      "constant": false,
      "inputs": [],
      "name": "renouncePauser",
      "outputs": [],
      "payable": false,
      "stateMutability": "nonpayable",
      "type": "function"
    },
    {
      "constant": true,
      "inputs": [
        {
          "name": "owner",
          "type": "address"
        }
      ],
      "name": "balanceOf",
      "outputs": [
        {
          "name": "",
          "type": "uint256"
        }
      ],
      "payable": false,
      "stateMutability": "view",
      "type": "function"
    },
    {
      "constant": true,
      "inputs": [
        {
          "name": "_id",
          "type": "uint256"
        }
      ],
      "name": "getTicket",
      "outputs": [
        {
          "name": "",
          "type": "uint256"
        },
        {
          "name": "",
          "type": "uint256"
        }
      ],
      "payable": false,
      "stateMutability": "view",
      "type": "function"
    },
    {
      "constant": false,
      "inputs": [
        {
          "name": "account",
          "type": "address"
        }
      ],
      "name": "addPauser",
      "outputs": [],
      "payable": false,
      "stateMutability": "nonpayable",
      "type": "function"
    },
    {
      "constant": false,
      "inputs": [],
      "name": "pause",
      "outputs": [],
      "payable": false,
      "stateMutability": "nonpayable",
      "type": "function"
    },
    {
      "constant": false,
      "inputs": [
        {
          "name": "to",
          "type": "address"
        },
        {
          "name": "approved",
          "type": "bool"
        }
      ],
      "name": "setApprovalForAll",
      "outputs": [],
      "payable": false,
      "stateMutability": "nonpayable",
      "type": "function"
    },
    {
      "constant": false,
      "inputs": [
        {
          "name": "from",
          "type": "address"
        },
        {
          "name": "to",
          "type": "address"
        },
        {
          "name": "tokenId",
          "type": "uint256"
        },
        {
          "name": "_data",
          "type": "bytes"
        }
      ],
      "name": "safeTransferFrom",
      "outputs": [],
      "payable": false,
      "stateMutability": "nonpayable",
      "type": "function"
    },
    {
      "constant": true,
      "inputs": [
        {
          "name": "owner",
          "type": "address"
        },
        {
          "name": "operator",
          "type": "address"
        }
      ],
      "name": "isApprovedForAll",
      "outputs": [
        {
          "name": "",
          "type": "bool"
        }
      ],
      "payable": false,
      "stateMutability": "view",
      "type": "function"
    },
    {
      "inputs": [
        {
          "name": "_token",
          "type": "address"
        }
      ],
      "payable": false,
      "stateMutability": "nonpayable",
      "type": "constructor"
    },
    {
      "anonymous": false,
      "inputs": [
        {
          "indexed": true,
          "name": "owner",
          "type": "address"
        },
        {
          "indexed": false,
          "name": "eventId",
          "type": "uint256"
        }
      ],
      "name": "CreatedEvent",
      "type": "event"
    },
    {
      "anonymous": false,
      "inputs": [
        {
          "indexed": true,
          "name": "buyer",
          "type": "address"
        },
        {
          "indexed": true,
          "name": "eventId",
          "type": "uint256"
        },
        {
          "indexed": false,
          "name": "ticketId",
          "type": "uint256"
        }
      ],
      "name": "SoldTicket",
      "type": "event"
    },
    {
      "anonymous": false,
      "inputs": [
        {
          "indexed": false,
          "name": "account",
          "type": "address"
        }
      ],
      "name": "Paused",
      "type": "event"
    },
    {
      "anonymous": false,
      "inputs": [
        {
          "indexed": false,
          "name": "account",
          "type": "address"
        }
      ],
      "name": "Unpaused",
      "type": "event"
    },
    {
      "anonymous": false,
      "inputs": [
        {
          "indexed": true,
          "name": "account",
          "type": "address"
        }
      ],
      "name": "PauserAdded",
      "type": "event"
    },
    {
      "anonymous": false,
      "inputs": [
        {
          "indexed": true,
          "name": "account",
          "type": "address"
        }
      ],
      "name": "PauserRemoved",
      "type": "event"
    },
    {
      "anonymous": false,
      "inputs": [
        {
          "indexed": true,
          "name": "from",
          "type": "address"
        },
        {
          "indexed": true,
          "name": "to",
          "type": "address"
        },
        {
          "indexed": true,
          "name": "tokenId",
          "type": "uint256"
        }
      ],
      "name": "Transfer",
      "type": "event"
    },
    {
      "anonymous": false,
      "inputs": [
        {
          "indexed": true,
          "name": "owner",
          "type": "address"
        },
        {
          "indexed": true,
          "name": "approved",
          "type": "address"
        },
        {
          "indexed": true,
          "name": "tokenId",
          "type": "uint256"
        }
      ],
      "name": "Approval",
      "type": "event"
    },
    {
      "anonymous": false,
      "inputs": [
        {
          "indexed": true,
          "name": "owner",
          "type": "address"
        },
        {
          "indexed": true,
          "name": "operator",
          "type": "address"
        },
        {
          "indexed": false,
          "name": "approved",
          "type": "bool"
        }
      ],
      "name": "ApprovalForAll",
      "type": "event"
    },
    {
      "constant": false,
      "inputs": [
        {
          "name": "_token",
          "type": "address"
        }
      ],
      "name": "chengeToken",
      "outputs": [],
      "payable": false,
      "stateMutability": "nonpayable",
      "type": "function"
    },
    {
      "constant": false,
      "inputs": [
        {
          "name": "_name",
          "type": "string"
        },
        {
          "name": "_time",
          "type": "uint256"
        },
        {
          "name": "_price",
          "type": "uint256"
        },
        {
          "name": "_token",
          "type": "bool"
        },
        {
          "name": "_limited",
          "type": "bool"
        },
        {
          "name": "_seats",
          "type": "uint256"
        },
        {
          "name": "_ipfs",
          "type": "string"
        }
      ],
      "name": "createEvent",
      "outputs": [],
      "payable": false,
      "stateMutability": "nonpayable",
      "type": "function"
    },
    {
      "constant": true,
      "inputs": [
        {
          "name": "_owner",
          "type": "address"
        }
      ],
      "name": "eventsOf",
      "outputs": [
        {
          "name": "",
          "type": "uint256[]"
        }
      ],
      "payable": false,
      "stateMutability": "view",
      "type": "function"
    },
    {
      "constant": true,
      "inputs": [
        {
          "name": "_id",
          "type": "uint256"
        }
      ],
      "name": "getEvent",
      "outputs": [
        {
          "name": "name",
          "type": "string"
        },
        {
          "name": "time",
          "type": "uint256"
        },
        {
          "name": "price",
          "type": "uint256"
        },
        {
          "name": "token",
          "type": "bool"
        },
        {
          "name": "limited",
          "type": "bool"
        },
        {
          "name": "seats",
          "type": "uint256"
        },
        {
          "name": "sold",
          "type": "uint256"
        },
        {
          "name": "ipfs",
          "type": "string"
        },
        {
          "name": "owner",
          "type": "address"
        }
      ],
      "payable": false,
      "stateMutability": "view",
      "type": "function"
    },
    {
      "constant": true,
      "inputs": [],
      "name": "getEventsCount",
      "outputs": [
        {
          "name": "",
          "type": "uint256"
        }
      ],
      "payable": false,
      "stateMutability": "view",
      "type": "function"
    },
    {
      "constant": false,
      "inputs": [
        {
          "name": "_eventId",
          "type": "uint256"
        }
      ],
      "name": "buyTicket",
      "outputs": [],
      "payable": true,
      "stateMutability": "payable",
      "type": "function"
    }
  ],
  "bytecode": "0x60806040523480156200001157600080fd5b5060405160208062002d3a83398101806040528101908080519060200190929190505050336000806101000a81548173ffffffffffffffffffffffffffffffffffffffff021916908373ffffffffffffffffffffffffffffffffffffffff160217905550620000b26301ffc9a77c0100000000000000000000000000000000000000000000000000000000026200016c640100000000026401000000009004565b620000ef6380ac58cd7c0100000000000000000000000000000000000000000000000000000000026200016c640100000000026401000000009004565b62000109336200022a640100000000026401000000009004565b6000600860006101000a81548160ff02191690831515021790555080600860016101000a81548173ffffffffffffffffffffffffffffffffffffffff021916908373ffffffffffffffffffffffffffffffffffffffff16021790555050620003ec565b63ffffffff7c010000000000000000000000000000000000000000000000000000000002817bffffffffffffffffffffffffffffffffffffffffffffffffffffffff191614151515620001be57600080fd5b6001806000837bffffffffffffffffffffffffffffffffffffffffffffffffffffffff19167bffffffffffffffffffffffffffffffffffffffffffffffffffffffff1916815260200190815260200160002060006101000a81548160ff02191690831515021790555050565b6200024e816007620002946401000000000262002729179091906401000000009004565b8073ffffffffffffffffffffffffffffffffffffffff167f6719d08c1888103bea251a4ed56406bd0c3e69723c8a1686e017e7bbe159b6f860405160405180910390a250565b600073ffffffffffffffffffffffffffffffffffffffff168173ffffffffffffffffffffffffffffffffffffffff1614151515620002d157600080fd5b620002ec828262000357640100000000026401000000009004565b151515620002f957600080fd5b60018260000160008373ffffffffffffffffffffffffffffffffffffffff1673ffffffffffffffffffffffffffffffffffffffff16815260200190815260200160002060006101000a81548160ff0219169083151502179055505050565b60008073ffffffffffffffffffffffffffffffffffffffff168273ffffffffffffffffffffffffffffffffffffffff16141515156200039557600080fd5b8260000160008373ffffffffffffffffffffffffffffffffffffffff1673ffffffffffffffffffffffffffffffffffffffff16815260200190815260200160002060009054906101000a900460ff16905092915050565b61293e80620003fc6000396000f300608060405260043610610133576000357c0100000000000000000000000000000000000000000000000000000000900463ffffffff16806301ffc9a714610138578063081812fc1461019c578063095ea7b31461020957806323b872dd1461025657806330366d5f146102c35780633289ac2b146102ee5780633f4ba83a1461033157806342842e0e1461034857806346fbf68e146103b55780635c975abb146104105780636352211e1461043f57806367dd74ca146104ac57806368ed44e7146104cc5780636d1884e0146105645780636ef8d66d146106db57806370a08231146106f25780637dc379fa1461074957806382dc1ec4146107915780638456cb59146107d4578063a22cb465146107eb578063b88d4fde1461083a578063c22d6b61146108ed578063e985e9c5146109d2575b600080fd5b34801561014457600080fd5b5061018260048036038101908080357bffffffffffffffffffffffffffffffffffffffffffffffffffffffff19169060200190929190505050610a4d565b604051808215151515815260200191505060405180910390f35b3480156101a857600080fd5b506101c760048036038101908080359060200190929190505050610ab5565b604051808273ffffffffffffffffffffffffffffffffffffffff1673ffffffffffffffffffffffffffffffffffffffff16815260200191505060405180910390f35b34801561021557600080fd5b50610254600480360381019080803573ffffffffffffffffffffffffffffffffffffffff16906020019092919080359060200190929190505050610b06565b005b34801561026257600080fd5b506102c1600480360381019080803573ffffffffffffffffffffffffffffffffffffffff169060200190929190803573ffffffffffffffffffffffffffffffffffffffff16906020019092919080359060200190929190505050610c4b565b005b3480156102cf57600080fd5b506102d8610c70565b6040518082815260200191505060405180910390f35b3480156102fa57600080fd5b5061032f600480360381019080803573ffffffffffffffffffffffffffffffffffffffff169060200190929190505050610c7d565b005b34801561033d57600080fd5b50610346610d1c565b005b34801561035457600080fd5b506103b3600480360381019080803573ffffffffffffffffffffffffffffffffffffffff169060200190929190803573ffffffffffffffffffffffffffffffffffffffff16906020019092919080359060200190929190505050610dcb565b005b3480156103c157600080fd5b506103f6600480360381019080803573ffffffffffffffffffffffffffffffffffffffff169060200190929190505050610dec565b604051808215151515815260200191505060405180910390f35b34801561041c57600080fd5b50610425610e09565b604051808215151515815260200191505060405180910390f35b34801561044b57600080fd5b5061046a60048036038101908080359060200190929190505050610e20565b604051808273ffffffffffffffffffffffffffffffffffffffff1673ffffffffffffffffffffffffffffffffffffffff16815260200191505060405180910390f35b6104ca60048036038101908080359060200190929190505050610e9e565b005b3480156104d857600080fd5b5061050d600480360381019080803573ffffffffffffffffffffffffffffffffffffffff169060200190929190505050611421565b6040518080602001828103825283818151815260200191508051906020019060200280838360005b83811015610550578082015181840152602081019050610535565b505050509050019250505060405180910390f35b34801561057057600080fd5b5061058f600480360381019080803590602001909291905050506114b8565b60405180806020018a81526020018981526020018815151515815260200187151515158152602001868152602001858152602001806020018473ffffffffffffffffffffffffffffffffffffffff1673ffffffffffffffffffffffffffffffffffffffff16815260200183810383528c818151815260200191508051906020019080838360005b83811015610631578082015181840152602081019050610616565b50505050905090810190601f16801561065e5780820380516001836020036101000a031916815260200191505b50838103825285818151815260200191508051906020019080838360005b8381101561069757808201518184015260208101905061067c565b50505050905090810190601f1680156106c45780820380516001836020036101000a031916815260200191505b509b50505050505050505050505060405180910390f35b3480156106e757600080fd5b506106f061175c565b005b3480156106fe57600080fd5b50610733600480360381019080803573ffffffffffffffffffffffffffffffffffffffff169060200190929190505050611767565b6040518082815260200191505060405180910390f35b34801561075557600080fd5b50610774600480360381019080803590602001909291905050506117f2565b604051808381526020018281526020019250505060405180910390f35b34801561079d57600080fd5b506107d2600480360381019080803573ffffffffffffffffffffffffffffffffffffffff169060200190929190505050611862565b005b3480156107e057600080fd5b506107e9611882565b005b3480156107f757600080fd5b50610838600480360381019080803573ffffffffffffffffffffffffffffffffffffffff169060200190929190803515159060200190929190505050611932565b005b34801561084657600080fd5b506108eb600480360381019080803573ffffffffffffffffffffffffffffffffffffffff169060200190929190803573ffffffffffffffffffffffffffffffffffffffff16906020019092919080359060200190929190803590602001908201803590602001908080601f0160208091040260200160405190810160405280939291908181526020018383808284378201915050505050509192919290505050611a6e565b005b3480156108f957600080fd5b506109d0600480360381019080803590602001908201803590602001908080601f0160208091040260200160405190810160405280939291908181526020018383808284378201915050505050509192919290803590602001909291908035906020019092919080351515906020019092919080351515906020019092919080359060200190929190803590602001908201803590602001908080601f0160208091040260200160405190810160405280939291908181526020018383808284378201915050505050509192919290505050611a96565b005b3480156109de57600080fd5b50610a33600480360381019080803573ffffffffffffffffffffffffffffffffffffffff169060200190929190803573ffffffffffffffffffffffffffffffffffffffff169060200190929190505050611d1b565b604051808215151515815260200191505060405180910390f35b600060016000837bffffffffffffffffffffffffffffffffffffffffffffffffffffffff19167bffffffffffffffffffffffffffffffffffffffffffffffffffffffff1916815260200190815260200160002060009054906101000a900460ff169050919050565b6000610ac082611daf565b1515610acb57600080fd5b6003600083815260200190815260200160002060009054906101000a900473ffffffffffffffffffffffffffffffffffffffff169050919050565b6000610b1182610e20565b90508073ffffffffffffffffffffffffffffffffffffffff168373ffffffffffffffffffffffffffffffffffffffff1614151515610b4e57600080fd5b8073ffffffffffffffffffffffffffffffffffffffff163373ffffffffffffffffffffffffffffffffffffffff161480610b8e5750610b8d8133611d1b565b5b1515610b9957600080fd5b826003600084815260200190815260200160002060006101000a81548173ffffffffffffffffffffffffffffffffffffffff021916908373ffffffffffffffffffffffffffffffffffffffff160217905550818373ffffffffffffffffffffffffffffffffffffffff168273ffffffffffffffffffffffffffffffffffffffff167f8c5be1e5ebec7d5bd14f71427d1e84f3dd0314c0f7b2291e5b200ac8c7c3b92560405160405180910390a4505050565b610c553382611e21565b1515610c6057600080fd5b610c6b838383611eb6565b505050565b6000600980549050905090565b6000809054906101000a900473ffffffffffffffffffffffffffffffffffffffff1673ffffffffffffffffffffffffffffffffffffffff163373ffffffffffffffffffffffffffffffffffffffff16141515610cd857600080fd5b80600860016101000a81548173ffffffffffffffffffffffffffffffffffffffff021916908373ffffffffffffffffffffffffffffffffffffffff16021790555050565b610d2533610dec565b1515610d3057600080fd5b600860009054906101000a900460ff161515610d4b57600080fd5b6000600860006101000a81548160ff0219169083151502179055507f5db9ee0a495bf2e6ff9c91a7834c1ba4fdd244a5e8aa4e537bd38aeae4b073aa33604051808273ffffffffffffffffffffffffffffffffffffffff1673ffffffffffffffffffffffffffffffffffffffff16815260200191505060405180910390a1565b610de78383836020604051908101604052806000815250611a6e565b505050565b6000610e0282600761207d90919063ffffffff16565b9050919050565b6000600860009054906101000a900460ff16905090565b6000806002600084815260200190815260200160002060009054906101000a900473ffffffffffffffffffffffffffffffffffffffff169050600073ffffffffffffffffffffffffffffffffffffffff168173ffffffffffffffffffffffffffffffffffffffff1614151515610e9557600080fd5b80915050919050565b610ea66127ec565b6000610eb0612853565b60008460098054905081101515610ec657600080fd5b600986815481101515610ed557fe5b9060005260206000209060080201600201544281111515610ef557600080fd5b600860009054906101000a900460ff16151515610f1157600080fd5b600987815481101515610f2057fe5b906000526020600020906008020161012060405190810160405290816000820160009054906101000a900473ffffffffffffffffffffffffffffffffffffffff1673ffffffffffffffffffffffffffffffffffffffff1673ffffffffffffffffffffffffffffffffffffffff168152602001600182018054600181600116156101000203166002900480601f01602080910402602001604051908101604052809291908181526020018280546001816001161561010002031660029004801561102a5780601f10610fff5761010080835404028352916020019161102a565b820191906000526020600020905b81548152906001019060200180831161100d57829003601f168201915b5050505050815260200160028201548152602001600382015481526020016004820160009054906101000a900460ff161515151581526020016004820160019054906101000a900460ff161515151581526020016005820154815260200160068201548152602001600782018054600181600116156101000203166002900480601f01602080910402602001604051908101604052809291908181526020018280546001816001161561010002031660029004801561112a5780601f106110ff5761010080835404028352916020019161112a565b820191906000526020600020905b81548152906001019060200180831161110d57829003601f168201915b50505050508152505095508560a0015115611156578560e001518660c0015111151561115557600080fd5b5b856080015115156111c8578560600151341015151561117457600080fd5b856000015173ffffffffffffffffffffffffffffffffffffffff166108fc87606001519081150290604051600060405180830381858888f193505050501580156111c2573d6000803e3d6000fd5b50611310565b600860019054906101000a900473ffffffffffffffffffffffffffffffffffffffff1673ffffffffffffffffffffffffffffffffffffffff166323b872dd33886000015189606001516040518463ffffffff167c0100000000000000000000000000000000000000000000000000000000028152600401808473ffffffffffffffffffffffffffffffffffffffff1673ffffffffffffffffffffffffffffffffffffffff1681526020018373ffffffffffffffffffffffffffffffffffffffff1673ffffffffffffffffffffffffffffffffffffffff1681526020018281526020019350505050602060405180830381600087803b1580156112c957600080fd5b505af11580156112dd573d6000803e3d6000fd5b505050506040513d60208110156112f357600080fd5b8101908080519060200190929190505050151561130f57600080fd5b5b61132860018760e0015161211190919063ffffffff16565b94508460098881548110151561133a57fe5b90600052602060002090600802016006018190555060408051908101604052808881526020018681525093506113bd6001600686908060018154018082558091505090600182039060005260206000209060020201600090919290919091506000820151816000015560208201518160010155505061213290919063ffffffff16565b92506113c93384612153565b863373ffffffffffffffffffffffffffffffffffffffff167f97688cba7bf855e0de150e78d076aad5556007b5c34a8e89612b5f2085d0efbf856040518082815260200191505060405180910390a350505050505050565b6060600a60008373ffffffffffffffffffffffffffffffffffffffff1673ffffffffffffffffffffffffffffffffffffffff1681526020019081526020016000208054806020026020016040519081016040528092919081815260200182805480156114ac57602002820191906000526020600020905b815481526020019060010190808311611498575b50505050509050919050565b6060600080600080600080606060006114cf6127ec565b8a600980549050811015156114e357600080fd5b60098c8154811015156114f257fe5b906000526020600020906008020161012060405190810160405290816000820160009054906101000a900473ffffffffffffffffffffffffffffffffffffffff1673ffffffffffffffffffffffffffffffffffffffff1673ffffffffffffffffffffffffffffffffffffffff168152602001600182018054600181600116156101000203166002900480601f0160208091040260200160405190810160405280929190818152602001828054600181600116156101000203166002900480156115fc5780601f106115d1576101008083540402835291602001916115fc565b820191906000526020600020905b8154815290600101906020018083116115df57829003601f168201915b5050505050815260200160028201548152602001600382015481526020016004820160009054906101000a900460ff161515151581526020016004820160019054906101000a900460ff161515151581526020016005820154815260200160068201548152602001600782018054600181600116156101000203166002900480601f0160208091040260200160405190810160405280929190818152602001828054600181600116156101000203166002900480156116fc5780601f106116d1576101008083540402835291602001916116fc565b820191906000526020600020905b8154815290600101906020018083116116df57829003601f168201915b505050505081525050915081602001518260400151836060015184608001518560a001518660c001518760e0015188610100015189600001518898508191509a509a509a509a509a509a509a509a509a5050509193959799909294969850565b6117653361229d565b565b60008073ffffffffffffffffffffffffffffffffffffffff168273ffffffffffffffffffffffffffffffffffffffff16141515156117a457600080fd5b6117eb600460008473ffffffffffffffffffffffffffffffffffffffff1673ffffffffffffffffffffffffffffffffffffffff1681526020019081526020016000206122f7565b9050919050565b6000806117fd612853565b6006805490508410151561181057600080fd5b60068481548110151561181f57fe5b9060005260206000209060020201604080519081016040529081600082015481526020016001820154815250509050806000015181602001519250925050915091565b61186b33610dec565b151561187657600080fd5b61187f81612305565b50565b61188b33610dec565b151561189657600080fd5b600860009054906101000a900460ff161515156118b257600080fd5b6001600860006101000a81548160ff0219169083151502179055507f62e78cea01bee320cd4e420270b5ea74000d11b0c9f74754ebdbfc544b05a25833604051808273ffffffffffffffffffffffffffffffffffffffff1673ffffffffffffffffffffffffffffffffffffffff16815260200191505060405180910390a1565b3373ffffffffffffffffffffffffffffffffffffffff168273ffffffffffffffffffffffffffffffffffffffff161415151561196d57600080fd5b80600560003373ffffffffffffffffffffffffffffffffffffffff1673ffffffffffffffffffffffffffffffffffffffff16815260200190815260200160002060008473ffffffffffffffffffffffffffffffffffffffff1673ffffffffffffffffffffffffffffffffffffffff16815260200190815260200160002060006101000a81548160ff0219169083151502179055508173ffffffffffffffffffffffffffffffffffffffff163373ffffffffffffffffffffffffffffffffffffffff167f17307eab39ab6107e8899845ad3d59bd9653f200f220920489ca2b5937696c3183604051808215151515815260200191505060405180910390a35050565b611a79848484610c4b565b611a858484848461235f565b1515611a9057600080fd5b50505050565b611a9e6127ec565b6000874281111515611aaf57600080fd5b600860009054906101000a900460ff16151515611acb57600080fd5b610120604051908101604052803373ffffffffffffffffffffffffffffffffffffffff1681526020018b81526020018a81526020018981526020018815158152602001871515815260200186815260200160008152602001858152509250611c5660016009859080600181540180825580915050906001820390600052602060002090600802016000909192909190915060008201518160000160006101000a81548173ffffffffffffffffffffffffffffffffffffffff021916908373ffffffffffffffffffffffffffffffffffffffff1602179055506020820151816001019080519060200190611bbf92919061286d565b50604082015181600201556060820151816003015560808201518160040160006101000a81548160ff02191690831515021790555060a08201518160040160016101000a81548160ff02191690831515021790555060c0820151816005015560e08201518160060155610100820151816007019080519060200190611c4592919061286d565b50505061213290919063ffffffff16565b9150600a60003373ffffffffffffffffffffffffffffffffffffffff1673ffffffffffffffffffffffffffffffffffffffff1681526020019081526020016000208290806001815401808255809150509060018203906000526020600020016000909192909190915055503373ffffffffffffffffffffffffffffffffffffffff167f1b9f0acc82760e59223701955e645c64f98ae47d458195a82a4417253abc3c81836040518082815260200191505060405180910390a250505050505050505050565b6000600560008473ffffffffffffffffffffffffffffffffffffffff1673ffffffffffffffffffffffffffffffffffffffff16815260200190815260200160002060008373ffffffffffffffffffffffffffffffffffffffff1673ffffffffffffffffffffffffffffffffffffffff16815260200190815260200160002060009054906101000a900460ff16905092915050565b6000806002600084815260200190815260200160002060009054906101000a900473ffffffffffffffffffffffffffffffffffffffff169050600073ffffffffffffffffffffffffffffffffffffffff168173ffffffffffffffffffffffffffffffffffffffff161415915050919050565b600080611e2d83610e20565b90508073ffffffffffffffffffffffffffffffffffffffff168473ffffffffffffffffffffffffffffffffffffffff161480611e9c57508373ffffffffffffffffffffffffffffffffffffffff16611e8484610ab5565b73ffffffffffffffffffffffffffffffffffffffff16145b80611ead5750611eac8185611d1b565b5b91505092915050565b8273ffffffffffffffffffffffffffffffffffffffff16611ed682610e20565b73ffffffffffffffffffffffffffffffffffffffff16141515611ef857600080fd5b600073ffffffffffffffffffffffffffffffffffffffff168273ffffffffffffffffffffffffffffffffffffffff1614151515611f3457600080fd5b611f3d81612581565b611f84600460008573ffffffffffffffffffffffffffffffffffffffff1673ffffffffffffffffffffffffffffffffffffffff168152602001908152602001600020612641565b611fcb600460008473ffffffffffffffffffffffffffffffffffffffff1673ffffffffffffffffffffffffffffffffffffffff168152602001908152602001600020612664565b816002600083815260200190815260200160002060006101000a81548173ffffffffffffffffffffffffffffffffffffffff021916908373ffffffffffffffffffffffffffffffffffffffff160217905550808273ffffffffffffffffffffffffffffffffffffffff168473ffffffffffffffffffffffffffffffffffffffff167fddf252ad1be2c89b69c2b068fc378daa952ba7f163c4a11628f55a4df523b3ef60405160405180910390a4505050565b60008073ffffffffffffffffffffffffffffffffffffffff168273ffffffffffffffffffffffffffffffffffffffff16141515156120ba57600080fd5b8260000160008373ffffffffffffffffffffffffffffffffffffffff1673ffffffffffffffffffffffffffffffffffffffff16815260200190815260200160002060009054906101000a900460ff16905092915050565b600080828401905083811015151561212857600080fd5b8091505092915050565b60008083831115151561214457600080fd5b82840390508091505092915050565b600073ffffffffffffffffffffffffffffffffffffffff168273ffffffffffffffffffffffffffffffffffffffff161415151561218f57600080fd5b61219881611daf565b1515156121a457600080fd5b816002600083815260200190815260200160002060006101000a81548173ffffffffffffffffffffffffffffffffffffffff021916908373ffffffffffffffffffffffffffffffffffffffff16021790555061223d600460008473ffffffffffffffffffffffffffffffffffffffff1673ffffffffffffffffffffffffffffffffffffffff168152602001908152602001600020612664565b808273ffffffffffffffffffffffffffffffffffffffff16600073ffffffffffffffffffffffffffffffffffffffff167fddf252ad1be2c89b69c2b068fc378daa952ba7f163c4a11628f55a4df523b3ef60405160405180910390a45050565b6122b181600761267a90919063ffffffff16565b8073ffffffffffffffffffffffffffffffffffffffff167fcd265ebaf09df2871cc7bd4133404a235ba12eff2041bb89d9c714a2621c7c7e60405160405180910390a250565b600081600001549050919050565b61231981600761272990919063ffffffff16565b8073ffffffffffffffffffffffffffffffffffffffff167f6719d08c1888103bea251a4ed56406bd0c3e69723c8a1686e017e7bbe159b6f860405160405180910390a250565b6000806123818573ffffffffffffffffffffffffffffffffffffffff166127d9565b15156123905760019150612578565b8473ffffffffffffffffffffffffffffffffffffffff1663150b7a02338887876040518563ffffffff167c0100000000000000000000000000000000000000000000000000000000028152600401808573ffffffffffffffffffffffffffffffffffffffff1673ffffffffffffffffffffffffffffffffffffffff1681526020018473ffffffffffffffffffffffffffffffffffffffff1673ffffffffffffffffffffffffffffffffffffffff16815260200183815260200180602001828103825283818151815260200191508051906020019080838360005b8381101561248557808201518184015260208101905061246a565b50505050905090810190601f1680156124b25780820380516001836020036101000a031916815260200191505b5095505050505050602060405180830381600087803b1580156124d457600080fd5b505af11580156124e8573d6000803e3d6000fd5b505050506040513d60208110156124fe57600080fd5b8101908080519060200190929190505050905063150b7a027c0100000000000000000000000000000000000000000000000000000000027bffffffffffffffffffffffffffffffffffffffffffffffffffffffff1916817bffffffffffffffffffffffffffffffffffffffffffffffffffffffff19161491505b50949350505050565b600073ffffffffffffffffffffffffffffffffffffffff166003600083815260200190815260200160002060009054906101000a900473ffffffffffffffffffffffffffffffffffffffff1673ffffffffffffffffffffffffffffffffffffffff1614151561263e5760006003600083815260200190815260200160002060006101000a81548173ffffffffffffffffffffffffffffffffffffffff021916908373ffffffffffffffffffffffffffffffffffffffff1602179055505b50565b6126596001826000015461213290919063ffffffff16565b816000018190555050565b6001816000016000828254019250508190555050565b600073ffffffffffffffffffffffffffffffffffffffff168173ffffffffffffffffffffffffffffffffffffffff16141515156126b657600080fd5b6126c0828261207d565b15156126cb57600080fd5b60008260000160008373ffffffffffffffffffffffffffffffffffffffff1673ffffffffffffffffffffffffffffffffffffffff16815260200190815260200160002060006101000a81548160ff0219169083151502179055505050565b600073ffffffffffffffffffffffffffffffffffffffff168173ffffffffffffffffffffffffffffffffffffffff161415151561276557600080fd5b61276f828261207d565b15151561277b57600080fd5b60018260000160008373ffffffffffffffffffffffffffffffffffffffff1673ffffffffffffffffffffffffffffffffffffffff16815260200190815260200160002060006101000a81548160ff0219169083151502179055505050565b600080823b905060008111915050919050565b61012060405190810160405280600073ffffffffffffffffffffffffffffffffffffffff1681526020016060815260200160008152602001600081526020016000151581526020016000151581526020016000815260200160008152602001606081525090565b604080519081016040528060008152602001600081525090565b828054600181600116156101000203166002900490600052602060002090601f016020900481019282601f106128ae57805160ff19168380011785556128dc565b828001600101855582156128dc579182015b828111156128db5782518255916020019190600101906128c0565b5b5090506128e991906128ed565b5090565b61290f91905b8082111561290b5760008160009055506001016128f3565b5090565b905600a165627a7a723058209d7fc35066db72c9af147a3df2a7b8b7dd25a5b72cf154eeb4a1dc1e82ed12b20029",
  "source": "pragma solidity ^0.4.24;\r\n\r\nimport './OpenTicket.sol';\r\nimport 'openzeppelin-solidity/contracts/token/ERC20/ERC20.sol';\r\nimport 'openzeppelin-solidity/contracts/lifecycle/Pausable.sol';\r\nimport 'openzeppelin-solidity/contracts/math/SafeMath.sol';\r\n\r\n/**\r\n* @title OpenEvents\r\n* @dev It is a main contract that provides ability to create events, view information about events and buy tickets.\r\n*/\r\ncontract OpenEvents is OpenTicket, Pausable {\r\n\tusing SafeMath for uint;\r\n\r\n\taddress tokenAddress;\r\n\r\n\tstruct OpenEvent {\r\n\t\taddress  owner;\r\n\t\tstring name;\r\n\t\tuint time;\r\n\t\tuint price;\r\n\t\tbool token;\r\n\t\tbool limited;\r\n\t\tuint seats;\r\n\t\tuint sold;\r\n\t\tstring ipfs;\r\n\t}\r\n\r\n\tOpenEvent[] private openEvents;\r\n\r\n\t// Mapping from owner to list of owned events IDs.\r\n\tmapping(address => uint256[]) private ownedEvents;\r\n\r\n\tevent CreatedEvent(address indexed owner, uint eventId);\r\n\tevent SoldTicket(address indexed buyer, uint indexed eventId, uint ticketId);\r\n\r\n\t/**\r\n\t* @dev Constructor sets the USD Token address that will be used for buying tickets.\r\n\t* @param _token address - The address of the token contract.\r\n\t*/\r\n\tconstructor(address _token) public {\r\n\t\ttokenAddress = _token;\r\n\t}\r\n\r\n\t/**\r\n\t* @dev Throws if events time is in the past.\r\n\t* @param _time uint - Time of event.\r\n\t*/\r\n    modifier goodTime(uint _time) {\r\n        require(_time > now);\r\n        _;\r\n    }\r\n\r\n\t/**\r\n\t* @dev Throws if event does not exist.\r\n\t* @param _id uint - Event ID.\r\n\t*/\r\n    modifier eventExist(uint _id) {\r\n        require(_id < openEvents.length);\r\n        _;\r\n    }\r\n\r\n\t/**\r\n\t* @dev Function changes the USD Token address.\r\n\t* @param _token address - The address of the token contract.\r\n\t* @notice Requires that the msg.sender is contract owner.\r\n\t*/\r\n\tfunction chengeToken(address _token) public onlyOwner() {\r\n\t\ttokenAddress = _token;\r\n\t}\r\n\r\n\t/**\r\n\t* @dev Function creates the event.\r\n\t* @param _name string - The name of the event.\r\n\t* @param _time uint - The time of the event. Should be in the future.\r\n\t* @param _price uint - The ticket price.\r\n\t* @param _token bool - If true the price will be in tokens, else the price will be in ethereum.\r\n\t* @param _limited bool - If true event has limited seats.\r\n\t* @param _seats uint - If event has limited seats, says how much tickets can be sold.\r\n\t* @param _ipfs string - The IPFS hash containing additional information about the event.\r\n\t* @notice Requires that the events time is in the future.\r\n\t* @notice Requires that the contract is not paused.\r\n\t*/\r\n\tfunction createEvent(\r\n\t\tstring memory _name,\r\n\t\tuint _time,\r\n\t\tuint _price,\r\n\t\tbool _token,\r\n\t\tbool _limited,\r\n\t\tuint _seats,\r\n\t\tstring memory _ipfs\r\n\t)\r\n\t\tgoodTime(_time)\r\n\t\twhenNotPaused()\r\n\t\tpublic\r\n\t{\r\n\t\tOpenEvent memory _event = OpenEvent({\r\n\t\t\towner: msg.sender,\r\n\t\t\tname: _name,\r\n\t\t\ttime: _time,\r\n\t\t\tprice: _price,\r\n\t\t\ttoken: _token,\r\n\t\t\tlimited: _limited,\r\n\t\t\tseats: _seats,\r\n\t\t\tsold: 0,\r\n\t\t\tipfs: _ipfs\r\n\t\t});\r\n\t\tuint _eventId = openEvents.push(_event).sub(1);\r\n\t\townedEvents[msg.sender].push(_eventId);\r\n\t\temit CreatedEvent(msg.sender, _eventId);\r\n\t}\r\n\r\n\t/**\r\n\t* @dev Function to show all events of the specified address.\r\n\t* @param _owner address - The address to query the events of.\r\n\t* @return uint[] - Array of events IDs.\r\n\t*/\r\n\tfunction eventsOf(address _owner) public view returns(uint[] memory) {\r\n\t\treturn ownedEvents[_owner];\r\n\t}\r\n\r\n\t/**\r\n\t* @dev Function to show information about the event.\r\n\t* @param _id uint - Event ID.\r\n\t* @return name string - The name of the event.\r\n\t* @return time uint - The time of the event.\r\n\t* @return price uint - The price of the event.\r\n\t* @return token bool - If true the price is in tokens, else the price is in ethereum.\r\n\t* @return limited bool - If true event has limited seats.\r\n\t* @return seats uint - If event has limited seats, show how much tickets can be sold.\r\n\t* @return sold uint - Number of sold tickets.\r\n\t* @return ipfs string - The IPFS hash containing additional information about event.\r\n\t* @return owner address - The owner of the event.\r\n\t* @notice Requires that the events exist.\r\n\t*/\r\n\tfunction getEvent(uint _id)\r\n\t\tpublic\r\n\t\tview\r\n\t\teventExist(_id)\r\n\treturns(\r\n\t\tstring memory name,\r\n\t\tuint time,\r\n\t\tuint price,\r\n\t\tbool token,\r\n\t\tbool limited,\r\n\t\tuint seats,\r\n\t\tuint sold,\r\n\t\tstring memory ipfs,\r\n\t\taddress owner\r\n\t) {\r\n\t\tOpenEvent memory _event = openEvents[_id];\r\n\t\treturn(\r\n\t\t\t_event.name,\r\n\t\t\t_event.time,\r\n\t\t\t_event.price,\r\n\t\t\t_event.token,\r\n\t\t\t_event.limited,\r\n\t\t\t_event.seats,\r\n\t\t\t_event.sold,\r\n\t\t\t_event.ipfs,\r\n\t\t\t_event.owner\r\n\t\t);\r\n\t}\r\n\r\n\t/**\r\n\t* @dev Function returns number of all events.\r\n\t* @return uint - Number of events.\r\n\t*/\r\n\tfunction getEventsCount() public view returns(uint) {\r\n\t\treturn openEvents.length;\r\n\t}\r\n\r\n\t/**\r\n\t* @dev Function to buy ticket to specific event.\r\n\t* @param _eventId uint - The ID of event.\r\n\t* @notice Requires that the events exist.\r\n\t* @notice Requires that the events time is in the future.\r\n\t* @notice Requires that the contract is not paused.\r\n\t* @notice Reverts if event has limited seats and an amount of sold tickets bigger then the number of seats.\r\n\t* @notice Reverts if ticket price is in ethereum and msg.value smaller then the ticket price.\r\n\t* @notice Reverts if ticket price is in tokens and token.transferFrom() does not return true.\r\n\t*/\r\n\tfunction buyTicket(uint _eventId)\r\n\t\tpublic\r\n\t\tpayable\r\n\t\teventExist(_eventId)\r\n\t\tgoodTime(openEvents[_eventId].time)\r\n\t\twhenNotPaused()\r\n\t{\r\n\t\tOpenEvent memory _event = openEvents[_eventId];\r\n\r\n\t\tif (_event.limited) require(_event.seats > _event.sold);\r\n\r\n\t\tif (!_event.token) {\r\n\t\t\trequire(msg.value >= _event.price);\r\n\t\t \t_event.owner.transfer(_event.price);\r\n\t\t} else {\r\n\t\t\tif (!ERC20(tokenAddress).transferFrom(msg.sender, _event.owner, _event.price)) {\r\n\t\t\t\trevert();\r\n\t\t\t}\r\n\t\t}\r\n\r\n\t\tuint seat = _event.sold.add(1);\r\n\t\topenEvents[_eventId].sold = seat;\r\n\r\n\t\tTicket memory _ticket = Ticket({\r\n\t\t\tevent_id: _eventId,\r\n\t\t\tseat: seat\r\n\t\t});\r\n\r\n\t\tuint _ticketId = tickets.push(_ticket).sub(1);\r\n        _mint(msg.sender, _ticketId);\r\n\t\temit SoldTicket(msg.sender, _eventId, _ticketId);\r\n\t}\r\n}\r\n",
  "sourcePath": "C:/Users/hp/Desktop/proojecttoken/contracts/OpenEvents.sol",
  "compiler": {
    "name": "solc",
    "version": "0.4.24+commit.e67f0147.Emscripten.clang"
  },
  "schemaVersion": "3.0.5",
  "updatedAt": "2019-05-21T11:13:23.707Z",
  "devdoc": {
    "methods": {
      "approve(address,uint256)": {
        "details": "Approves another address to transfer the given token ID The zero address indicates there is no approved address. There can only be one approved address per token at a given time. Can only be called by the token owner or an approved operator.",
        "params": {
          "to": "address to be approved for the given token ID",
          "tokenId": "uint256 ID of the token to be approved"
        }
      },
      "balanceOf(address)": {
        "details": "Gets the balance of the specified address",
        "params": {
          "owner": "address to query the balance of"
        },
        "return": "uint256 representing the amount owned by the passed address"
      },
      "buyTicket(uint256)": {
        "details": "Function to buy ticket to specific event.\r",
        "params": {
          "_eventId": "uint - The ID of event.\r"
        }
      },
      "chengeToken(address)": {
        "details": "Function changes the USD Token address.\r",
        "params": {
          "_token": "address - The address of the token contract.\r"
        }
      },
      "createEvent(string,uint256,uint256,bool,bool,uint256,string)": {
        "details": "Function creates the event.\r",
        "params": {
          "_ipfs": "string - The IPFS hash containing additional information about the event.\r",
          "_limited": "bool - If true event has limited seats.\r",
          "_name": "string - The name of the event.\r",
          "_price": "uint - The ticket price.\r",
          "_seats": "uint - If event has limited seats, says how much tickets can be sold.\r",
          "_time": "uint - The time of the event. Should be in the future.\r",
          "_token": "bool - If true the price will be in tokens, else the price will be in ethereum.\r"
        }
      },
      "eventsOf(address)": {
        "details": "Function to show all events of the specified address.\r",
        "params": {
          "_owner": "address - The address to query the events of.\r"
        },
        "return": "uint[] - Array of events IDs.\r"
      },
      "getApproved(uint256)": {
        "details": "Gets the approved address for a token ID, or zero if no address set Reverts if the token ID does not exist.",
        "params": {
          "tokenId": "uint256 ID of the token to query the approval of"
        },
        "return": "address currently approved for the given token ID"
      },
      "getEvent(uint256)": {
        "details": "Function to show information about the event.\r",
        "params": {
          "_id": "uint - Event ID.\r"
        },
        "return": "name string - The name of the event.\rtime uint - The time of the event.\rprice uint - The price of the event.\rtoken bool - If true the price is in tokens, else the price is in ethereum.\rlimited bool - If true event has limited seats.\rseats uint - If event has limited seats, show how much tickets can be sold.\rsold uint - Number of sold tickets.\ripfs string - The IPFS hash containing additional information about event.\rowner address - The owner of the event.\r"
      },
      "getEventsCount()": {
        "details": "Function returns number of all events.\r",
        "return": "uint - Number of events.\r"
      },
      "getTicket(uint256)": {
        "details": "Function to show ticket information.\r",
        "params": {
          "_id": "uint - Ticket ID.\r"
        },
        "return": "uint - Event ID.\ruint - Ticket seat.\r"
      },
      "isApprovedForAll(address,address)": {
        "details": "Tells whether an operator is approved by a given owner",
        "params": {
          "operator": "operator address which you want to query the approval of",
          "owner": "owner address which you want to query the approval of"
        },
        "return": "bool whether the given operator is approved by the given owner"
      },
      "ownerOf(uint256)": {
        "details": "Gets the owner of the specified token ID",
        "params": {
          "tokenId": "uint256 ID of the token to query the owner of"
        },
        "return": "address currently marked as the owner of the given token ID"
      },
      "pause()": {
        "details": "called by the owner to pause, triggers stopped state"
      },
      "paused()": {
        "return": "true if the contract is paused, false otherwise."
      },
      "safeTransferFrom(address,address,uint256)": {
        "details": "Safely transfers the ownership of a given token ID to another address If the target address is a contract, it must implement `onERC721Received`, which is called upon a safe transfer, and return the magic value `bytes4(keccak256(\"onERC721Received(address,address,uint256,bytes)\"))`; otherwise, the transfer is reverted. Requires the msg.sender to be the owner, approved, or operator",
        "params": {
          "from": "current owner of the token",
          "to": "address to receive the ownership of the given token ID",
          "tokenId": "uint256 ID of the token to be transferred"
        }
      },
      "safeTransferFrom(address,address,uint256,bytes)": {
        "details": "Safely transfers the ownership of a given token ID to another address If the target address is a contract, it must implement `onERC721Received`, which is called upon a safe transfer, and return the magic value `bytes4(keccak256(\"onERC721Received(address,address,uint256,bytes)\"))`; otherwise, the transfer is reverted. Requires the msg.sender to be the owner, approved, or operator",
        "params": {
          "_data": "bytes data to send along with a safe transfer check",
          "from": "current owner of the token",
          "to": "address to receive the ownership of the given token ID",
          "tokenId": "uint256 ID of the token to be transferred"
        }
      },
      "setApprovalForAll(address,bool)": {
        "details": "Sets or unsets the approval of a given operator An operator is allowed to transfer all tokens of the sender on their behalf",
        "params": {
          "approved": "representing the status of the approval to be set",
          "to": "operator address to set the approval"
        }
      },
      "supportsInterface(bytes4)": {
        "details": "implement supportsInterface(bytes4) using a lookup table"
      },
      "transferFrom(address,address,uint256)": {
        "details": "Transfers the ownership of a given token ID to another address Usage of this method is discouraged, use `safeTransferFrom` whenever possible Requires the msg.sender to be the owner, approved, or operator",
        "params": {
          "from": "current owner of the token",
          "to": "address to receive the ownership of the given token ID",
          "tokenId": "uint256 ID of the token to be transferred"
        }
      },
      "unpause()": {
        "details": "called by the owner to unpause, returns to normal state"
      }
    },
    "title": "OpenEvents\r"
  },
  "userdoc": {
    "methods": {
      "buyTicket(uint256)": {
        "notice": "Requires that the events exist.\rRequires that the events time is in the future.\rRequires that the contract is not paused.\rReverts if event has limited seats and an amount of sold tickets bigger then the number of seats.\rReverts if ticket price is in ethereum and msg.value smaller then the ticket price.\rReverts if ticket price is in tokens and token.transferFrom() does not return true.\r"
      },
      "chengeToken(address)": {
        "notice": "Requires that the msg.sender is contract owner.\r"
      },
      "createEvent(string,uint256,uint256,bool,bool,uint256,string)": {
        "notice": "Requires that the events time is in the future.\rRequires that the contract is not paused.\r"
      },
      "getEvent(uint256)": {
        "notice": "Requires that the events exist.\r"
      }
    }
  }
}